:040000000EEF00F00F
:0400080084EF04F08D
:100018008CEF04F00EEF04F09EA215EF00F017EF3E
:1000280000F010EF00F019EC04F09F80000E476E0E
:10003800000E466E74EF00F0E80E465C030E47585B
:10004800D8B029EF00F02BEF00F03CEF00F046C0ED
:1000580042F047C043F0060ED89042364336E82EA9
:1000680030EF00F042C0A3FF43C0A4FF60EF00F0F0
:10007800D00E465C070E4758D8B045EF00F047EF62
:1000880000F05CEF00F0D00E426E070E436E465053
:10009800425E4750435A060ED89042364336E82E01
:1000A80050EF00F042C0A3FF43C0A4FF60EF00F090
:1000B800000E476E000E466E464A472A0B0E426EE9
:1000C800620EE82EFED7422EFCD700D09FAE6FEF0F
:1000D80000F071EF00F074EF00F09F909F9E9F80FA
:1000E8009FB079EF00F07BEF00F020EF00F0C4EC58
:1000F80003F0486E000E486E090E456EB6EF00F02C
:10010800C4EC03F0446E020E4824D96EDA6A000E7D
:10011800DA2244C0DFFF482A040E4818D8A497EF13
:1001280000F099EF00F0B6EF00F0020E0218D8B414
:10013800A0EF00F0A2EF00F0B4EF00F0050E0218F7
:10014800D8B4A9EF00F0ABEF00F0B4EF00F0070E61
:100158000218D8A4B2EF00F0B4EF00F0B6EF00F048
:10016800035045264550485CD8A0BDEF00F0BFEFCE
:1001780000F084EF00F056EC01F0456E550E02ECED
:1001880004F0000E486ED3EF00F0020E4824D96E3A
:10019800DA6A000EDA22DF5002EC04F0482A4550F1
:1001A800485CD8A0DAEF00F0DCEF00F0C9EF00F00F
:1001B80010EF00F0120007C0F6FF08C0F7FF09C0F3
:1001C800F8FFA40E816EF85009E1000EF65C090EE6
:1001D800F758D8B0F2EF00F0F4EF00F0F9EF00F0C4
:1001E800FE0E0B6E0A0E55EF01F0000E3E6E000E6D
:1001F8003D6E42EF01F00B0E3D24D96E000E3E20FD
:10020800DA6EDF50F56EF8500BE1000EF65C800EEA
:10021800F758D8A012EF01F014EF01F016EF01F033
:10022800F4EF00F00D00F6CF39F01F0E3916D8B4F0
:1002380020EF01F022EF01F03CEF01F0FF0E396EE4
:10024800FF0E3A6E20EE03F0DECF3BF0DDCF3CF040
:1002580039503B263A503C223D503B1807E13E506E
:100268003C18D8A43AEF01F03CEF01F040EF01F060
:100278000A003AEC04F009003D4A3E2A03503D5C6E
:1002880004503E58D8A04BEF01F04DEF01F0FFEFBE
:1002980000F0010E0B6E000E006E000E016EF6EF00
:1002A80000F0120005C000F006C001F087EF01F071
:1002B80059EC02F0416EB0EF01F0DFEC00F0416E56
:1002C800B0EF01F0B2EC01F0416EB0EF01F00EECCE
:1002D80003F0416EB0EF01F006EC02F0416EB0EFB2
:1002E80001F047EC03F0416EB0EF01F0010E0B6E28
:1002F800010E366E090E416EB0EF01F00B680A0E62
:10030800416EB0EF01F002503F6E406A4050000A63
:10031800D8B491EF01F082EF01F03F50000AD8B451
:100328005CEF01F0020AD8B461EF01F0010AD8B419
:1003380066EF01F0050AD8B46BEF01F0010AD8B4F2
:1003480070EF01F00F0AD8B475EF01F0010AD8B4C4
:100358007AEF01F082EF01F04150120007C0F6FF7A
:1003680008C0F7FF09C0F8FFE00EF614396EFF0E5B
:10037800F7143A6EFF0EF8143B6E3B5007E1090E76
:100388003A5CD8B0CAEF01F0CCEF01F0D1EF01F040
:10039800FE0E0B6E0A0E05EF02F0000E3D6E000E0B
:1003A8003C6EF2EF01F0F8500BE1000EF65C800EA7
:1003B800F758D8A0E2EF01F0E4EF01F0E6EF01F022
:1003C800CCEF01F0940E816E3AEC04F0200EF62684
:1003D800000EF722000EF8223C4A3D2A03503C5CEE
:1003E80004503D58D8A0FBEF01F0FDEF01F0D7EF26
:1003F80001F0010E0B6E000E056E000E066ECEEFBC
:1004080001F0120007C0F6FF08C0F7FF09C0F8FFA7
:10041800F85009E1000EF65C090EF758D8B017EF4E
:1004280002F019EF02F01EEF02F0FE0E0B6E0A0E3C
:1004380058EF02F0100EF65C000EF758200EF85830
:10044800D8A029EF02F02BEF02F02FEF02F0C40E34
:10045800816E31EF02F0840E816E000E3B6E42EF2A
:1004680002F00B0E3B24D96EDA6A000EDA22DF5056
:10047800F56E0C003AEC04F0F62A3B2A3B50396E34
:100488003A6A0350395C04503A58D8A04EEF02F04B
:1004980050EF02F035EF02F0010E0B6E000E006E09
:1004A800000E016E1BEF02F01200010E0B6E010E22
:1004B8000C6E000E0D6E010E0E6E000E0F6E000E0D
:1004C800106E3F0EF86EF768FE0EF66EC00E816E67
:1004D8000900F5CF11F00900F5CF12F0000E136EE8
:1004E800000E146E200E156E200E166E300EF86E6D
:1004F800000EF76E000EF66E0C0E396E09000B0E2C
:100508003924D96EDA6A000EDA22F5CFDFFF392AEC
:100518000F0E396492EF02F094EF02F082EF02F0CE
:10052800190E1200070E8C6E000E886E000E896E72
:100538008A68000E8B6E000E0F01266F000E216F69
:10054800000E196F000E2E6F000E116F000E256F32
:10055800010E2D6F000E186F000E106F000E206F29
:10056800000E2C6F000E0F6F000E176F000E1F6F1E
:10057800000E246F0E6916691E692369070E2B6F1A
:100588000D6915691D6922690F0E2A6F170E0E0174
:10059800B56F090EFC6F070E0F01006F1200000EF9
:1005A800006E000E016E96EC02F02FEC04F024ECC5
:1005B80004F0D9EC03F0070E866E7AEC03F0E80637
:1005C800D8A4E9EF02F0EBEF02F0F0EF02F0869228
:1005D800A5EC03F010EC00F0000EFC6E000EE06ECF
:1005E80086829D9E9E9A9D98000E8A6E000E856E4C
:1005F800000E0F01216F000E0E01FC6F000EA56E9C
:10060800000EAC6E000EBD6E000E0F01006F80EF85
:1006180004F0120007C0F6FF08C0F7FF09C0F8FF92
:10062800C00E816EF85009E1000EF65C090EF7580D
:10063800D8B021EF03F023EF03F028EF03F0FE0E0C
:100648000B6E0A0E46EF03F0000E3B6E36EF03F01A
:1006580009000B0E3B24D96EDA6A000EDA22F5CFB8
:10066800DFFF3B2A3B50396E3A6A0350395C04502D
:100678003A58D8A042EF03F044EF03F02CEF03F010
:100688000350090F120007C0F6FF08C0F7FF09C0A2
:10069800F8FF800E816E000E346E000E336E03C0BC
:1006A80039F004C03AF0000E3C6E000E3B6E69EF64
:1006B80003F00900F5503326000E34220900F550E6
:1006C8003426020E3B26000E3C2239503B5C3A5041
:1006D8003C58D8A072EF03F074EF03F05DEF03F01D
:1006E80033C00BF034500C6E0B0E1200000E396E36
:1006F80000F0392A3928D8A484EF03F086EF03F0F4
:100708007CEF03F091B08BEF03F08DEF03F090EFE7
:1007180003F0010EA4EF03F0000EF66E090EF76E5B
:10072800000EF86E800E816E0900F528D8A49FEFA0
:1007380003F0A1EF03F0A3EF03F08DEF03F0000E39
:100748001200090E9F6E900E9D6E240E9E6E820EF4
:100758009B6E060E9C6E000E396E000E3A6E55ECBE
:1007680004F0000E396E000E3A6E50EC04F0000EE4
:10077800396E000E3A6E5AEC04F0000E356E120017
:100788000E01CDABCAEF03F0CCEF03F0C4EF03F0DA
:10079800000E356E9DA2D3EF03F0D5EF03F0D7EF2F
:1007A80003F09D989D8899501200010EBF6E000EAF
:1007B800BE6E000EC06EF90EBC6E000EBB6E0E0152
:1007C800CE93D00EBD6E1200000E0E01E16F000E2A
:1007D800E26F000EE36F000EE46F000EE56F000E8F
:1007E800E66F1200600E0E01D86F000EDA6F000E71
:1007F800DC6F080EDE6F000EDD6F1200396E0E0121
:10080800CDA909EF04F00BEF04F003EF04F039C0B1
:100818009AFF120000EE02F0370EEE6AE806FDE1DC
:10082800000EF86E00014AEF04F03604D8A41FEF5A
:1008380004F021EF04F023EF04F08692FF00120089
:10084800800EA56EEE0EA46E400EA36EAE50CF0BBA
:100858001009AE6E12008C0EAC6E010EAB6EF30E6C
:10086800AA6EAE50FC0B0109AE6E12000F010050CB
:10087800826F0150826F818200F000F01200E8EC74
:1008880003F0F6EC03F0D3EC02F0120043EC04F0B2
:100898004CEF04F00EEF00F039C02DF03AC02EF006
:1008A800120039C02FF03AC030F0120039C02BF0D6
:0608B8003AC02CF0120012
:020000040020DA
:10000000FF0FFF0FFF0FFF0FFF0FFF0FFF0FFF0F80
:020000040030CA
:0C0000008CFFFFFF9FFFFFFFFFFFFFFFD3
:00000001FF
